{
  "_format": "hh-sol-artifact-1",
  "contractName": "ChapterNFT",
  "sourceName": "contracts/ChapterNFT.sol",
  "abi": [
    {
      "inputs": [
        {
          "internalType": "string",
          "name": "name_",
          "type": "string"
        },
        {
          "internalType": "string",
          "name": "symbol_",
          "type": "string"
        },
        {
          "internalType": "address",
          "name": "initialOwner",
          "type": "address"
        }
      ],
      "stateMutability": "nonpayable",
      "type": "constructor"
    },
    {
      "inputs": [
        {
          "internalType": "uint256",
          "name": "numerator",
          "type": "uint256"
        },
        {
          "internalType": "uint256",
          "name": "denominator",
          "type": "uint256"
        }
      ],
      "name": "ERC2981InvalidDefaultRoyalty",
      "type": "error"
    },
    {
      "inputs": [
        {
          "internalType": "address",
          "name": "receiver",
          "type": "address"
        }
      ],
      "name": "ERC2981InvalidDefaultRoyaltyReceiver",
      "type": "error"
    },
    {
      "inputs": [
        {
          "internalType": "uint256",
          "name": "tokenId",
          "type": "uint256"
        },
        {
          "internalType": "uint256",
          "name": "numerator",
          "type": "uint256"
        },
        {
          "internalType": "uint256",
          "name": "denominator",
          "type": "uint256"
        }
      ],
      "name": "ERC2981InvalidTokenRoyalty",
      "type": "error"
    },
    {
      "inputs": [
        {
          "internalType": "uint256",
          "name": "tokenId",
          "type": "uint256"
        },
        {
          "internalType": "address",
          "name": "receiver",
          "type": "address"
        }
      ],
      "name": "ERC2981InvalidTokenRoyaltyReceiver",
      "type": "error"
    },
    {
      "inputs": [
        {
          "internalType": "address",
          "name": "sender",
          "type": "address"
        },
        {
          "internalType": "uint256",
          "name": "tokenId",
          "type": "uint256"
        },
        {
          "internalType": "address",
          "name": "owner",
          "type": "address"
        }
      ],
      "name": "ERC721IncorrectOwner",
      "type": "error"
    },
    {
      "inputs": [
        {
          "internalType": "address",
          "name": "operator",
          "type": "address"
        },
        {
          "internalType": "uint256",
          "name": "tokenId",
          "type": "uint256"
        }
      ],
      "name": "ERC721InsufficientApproval",
      "type": "error"
    },
    {
      "inputs": [
        {
          "internalType": "address",
          "name": "approver",
          "type": "address"
        }
      ],
      "name": "ERC721InvalidApprover",
      "type": "error"
    },
    {
      "inputs": [
        {
          "internalType": "address",
          "name": "operator",
          "type": "address"
        }
      ],
      "name": "ERC721InvalidOperator",
      "type": "error"
    },
    {
      "inputs": [
        {
          "internalType": "address",
          "name": "owner",
          "type": "address"
        }
      ],
      "name": "ERC721InvalidOwner",
      "type": "error"
    },
    {
      "inputs": [
        {
          "internalType": "address",
          "name": "receiver",
          "type": "address"
        }
      ],
      "name": "ERC721InvalidReceiver",
      "type": "error"
    },
    {
      "inputs": [
        {
          "internalType": "address",
          "name": "sender",
          "type": "address"
        }
      ],
      "name": "ERC721InvalidSender",
      "type": "error"
    },
    {
      "inputs": [
        {
          "internalType": "uint256",
          "name": "tokenId",
          "type": "uint256"
        }
      ],
      "name": "ERC721NonexistentToken",
      "type": "error"
    },
    {
      "inputs": [
        {
          "internalType": "address",
          "name": "owner",
          "type": "address"
        }
      ],
      "name": "OwnableInvalidOwner",
      "type": "error"
    },
    {
      "inputs": [
        {
          "internalType": "address",
          "name": "account",
          "type": "address"
        }
      ],
      "name": "OwnableUnauthorizedAccount",
      "type": "error"
    },
    {
      "inputs": [],
      "name": "ReentrancyGuardReentrantCall",
      "type": "error"
    },
    {
      "anonymous": false,
      "inputs": [
        {
          "indexed": true,
          "internalType": "address",
          "name": "owner",
          "type": "address"
        },
        {
          "indexed": true,
          "internalType": "address",
          "name": "approved",
          "type": "address"
        },
        {
          "indexed": true,
          "internalType": "uint256",
          "name": "tokenId",
          "type": "uint256"
        }
      ],
      "name": "Approval",
      "type": "event"
    },
    {
      "anonymous": false,
      "inputs": [
        {
          "indexed": true,
          "internalType": "address",
          "name": "owner",
          "type": "address"
        },
        {
          "indexed": true,
          "internalType": "address",
          "name": "operator",
          "type": "address"
        },
        {
          "indexed": false,
          "internalType": "bool",
          "name": "approved",
          "type": "bool"
        }
      ],
      "name": "ApprovalForAll",
      "type": "event"
    },
    {
      "anonymous": false,
      "inputs": [
        {
          "indexed": true,
          "internalType": "uint256",
          "name": "tokenId",
          "type": "uint256"
        },
        {
          "indexed": true,
          "internalType": "address",
          "name": "minter",
          "type": "address"
        }
      ],
      "name": "EditionMinted",
      "type": "event"
    },
    {
      "anonymous": false,
      "inputs": [
        {
          "indexed": true,
          "internalType": "uint256",
          "name": "tokenId",
          "type": "uint256"
        }
      ],
      "name": "ListingCancelled",
      "type": "event"
    },
    {
      "anonymous": false,
      "inputs": [
        {
          "indexed": true,
          "internalType": "uint256",
          "name": "tokenId",
          "type": "uint256"
        },
        {
          "indexed": false,
          "internalType": "uint256",
          "name": "price",
          "type": "uint256"
        }
      ],
      "name": "ListingCreated",
      "type": "event"
    },
    {
      "anonymous": false,
      "inputs": [
        {
          "indexed": true,
          "internalType": "uint256",
          "name": "tokenId",
          "type": "uint256"
        },
        {
          "indexed": false,
          "internalType": "address",
          "name": "seller",
          "type": "address"
        },
        {
          "indexed": false,
          "internalType": "address",
          "name": "buyer",
          "type": "address"
        },
        {
          "indexed": false,
          "internalType": "uint256",
          "name": "price",
          "type": "uint256"
        }
      ],
      "name": "ListingSold",
      "type": "event"
    },
    {
      "anonymous": false,
      "inputs": [
        {
          "indexed": true,
          "internalType": "address",
          "name": "previousOwner",
          "type": "address"
        },
        {
          "indexed": true,
          "internalType": "address",
          "name": "newOwner",
          "type": "address"
        }
      ],
      "name": "OwnershipTransferred",
      "type": "event"
    },
    {
      "anonymous": false,
      "inputs": [
        {
          "indexed": true,
          "internalType": "address",
          "name": "from",
          "type": "address"
        },
        {
          "indexed": true,
          "internalType": "address",
          "name": "to",
          "type": "address"
        },
        {
          "indexed": true,
          "internalType": "uint256",
          "name": "tokenId",
          "type": "uint256"
        }
      ],
      "name": "Transfer",
      "type": "event"
    },
    {
      "inputs": [],
      "name": "MAX_EDITIONS",
      "outputs": [
        {
          "internalType": "uint256",
          "name": "",
          "type": "uint256"
        }
      ],
      "stateMutability": "view",
      "type": "function"
    },
    {
      "inputs": [],
      "name": "MINT_PRICE",
      "outputs": [
        {
          "internalType": "uint256",
          "name": "",
          "type": "uint256"
        }
      ],
      "stateMutability": "view",
      "type": "function"
    },
    {
      "inputs": [
        {
          "internalType": "address",
          "name": "to",
          "type": "address"
        },
        {
          "internalType": "uint256",
          "name": "tokenId",
          "type": "uint256"
        }
      ],
      "name": "approve",
      "outputs": [],
      "stateMutability": "nonpayable",
      "type": "function"
    },
    {
      "inputs": [
        {
          "internalType": "address",
          "name": "owner",
          "type": "address"
        }
      ],
      "name": "balanceOf",
      "outputs": [
        {
          "internalType": "uint256",
          "name": "",
          "type": "uint256"
        }
      ],
      "stateMutability": "view",
      "type": "function"
    },
    {
      "inputs": [
        {
          "internalType": "uint256",
          "name": "tokenId",
          "type": "uint256"
        }
      ],
      "name": "buyListed",
      "outputs": [],
      "stateMutability": "payable",
      "type": "function"
    },
    {
      "inputs": [
        {
          "internalType": "uint256",
          "name": "tokenId",
          "type": "uint256"
        }
      ],
      "name": "cancelListing",
      "outputs": [],
      "stateMutability": "nonpayable",
      "type": "function"
    },
    {
      "inputs": [],
      "name": "currentEdition",
      "outputs": [
        {
          "internalType": "uint256",
          "name": "",
          "type": "uint256"
        }
      ],
      "stateMutability": "view",
      "type": "function"
    },
    {
      "inputs": [
        {
          "internalType": "uint256",
          "name": "tokenId",
          "type": "uint256"
        }
      ],
      "name": "getApproved",
      "outputs": [
        {
          "internalType": "address",
          "name": "",
          "type": "address"
        }
      ],
      "stateMutability": "view",
      "type": "function"
    },
    {
      "inputs": [
        {
          "internalType": "address",
          "name": "owner",
          "type": "address"
        },
        {
          "internalType": "address",
          "name": "operator",
          "type": "address"
        }
      ],
      "name": "isApprovedForAll",
      "outputs": [
        {
          "internalType": "bool",
          "name": "",
          "type": "bool"
        }
      ],
      "stateMutability": "view",
      "type": "function"
    },
    {
      "inputs": [
        {
          "internalType": "uint256",
          "name": "tokenId",
          "type": "uint256"
        },
        {
          "internalType": "uint256",
          "name": "price",
          "type": "uint256"
        }
      ],
      "name": "listForSale",
      "outputs": [],
      "stateMutability": "nonpayable",
      "type": "function"
    },
    {
      "inputs": [
        {
          "internalType": "uint256",
          "name": "",
          "type": "uint256"
        }
      ],
      "name": "listings",
      "outputs": [
        {
          "internalType": "address",
          "name": "seller",
          "type": "address"
        },
        {
          "internalType": "uint256",
          "name": "price",
          "type": "uint256"
        },
        {
          "internalType": "bool",
          "name": "active",
          "type": "bool"
        }
      ],
      "stateMutability": "view",
      "type": "function"
    },
    {
      "inputs": [],
      "name": "mintEdition",
      "outputs": [],
      "stateMutability": "payable",
      "type": "function"
    },
    {
      "inputs": [],
      "name": "mintFirstEdition",
      "outputs": [],
      "stateMutability": "nonpayable",
      "type": "function"
    },
    {
      "inputs": [],
      "name": "name",
      "outputs": [
        {
          "internalType": "string",
          "name": "",
          "type": "string"
        }
      ],
      "stateMutability": "view",
      "type": "function"
    },
    {
      "inputs": [],
      "name": "owner",
      "outputs": [
        {
          "internalType": "address",
          "name": "",
          "type": "address"
        }
      ],
      "stateMutability": "view",
      "type": "function"
    },
    {
      "inputs": [
        {
          "internalType": "uint256",
          "name": "tokenId",
          "type": "uint256"
        }
      ],
      "name": "ownerOf",
      "outputs": [
        {
          "internalType": "address",
          "name": "",
          "type": "address"
        }
      ],
      "stateMutability": "view",
      "type": "function"
    },
    {
      "inputs": [],
      "name": "renounceOwnership",
      "outputs": [],
      "stateMutability": "nonpayable",
      "type": "function"
    },
    {
      "inputs": [
        {
          "internalType": "uint256",
          "name": "tokenId",
          "type": "uint256"
        },
        {
          "internalType": "uint256",
          "name": "salePrice",
          "type": "uint256"
        }
      ],
      "name": "royaltyInfo",
      "outputs": [
        {
          "internalType": "address",
          "name": "receiver",
          "type": "address"
        },
        {
          "internalType": "uint256",
          "name": "amount",
          "type": "uint256"
        }
      ],
      "stateMutability": "view",
      "type": "function"
    },
    {
      "inputs": [
        {
          "internalType": "address",
          "name": "from",
          "type": "address"
        },
        {
          "internalType": "address",
          "name": "to",
          "type": "address"
        },
        {
          "internalType": "uint256",
          "name": "tokenId",
          "type": "uint256"
        }
      ],
      "name": "safeTransferFrom",
      "outputs": [],
      "stateMutability": "nonpayable",
      "type": "function"
    },
    {
      "inputs": [
        {
          "internalType": "address",
          "name": "from",
          "type": "address"
        },
        {
          "internalType": "address",
          "name": "to",
          "type": "address"
        },
        {
          "internalType": "uint256",
          "name": "tokenId",
          "type": "uint256"
        },
        {
          "internalType": "bytes",
          "name": "data",
          "type": "bytes"
        }
      ],
      "name": "safeTransferFrom",
      "outputs": [],
      "stateMutability": "nonpayable",
      "type": "function"
    },
    {
      "inputs": [
        {
          "internalType": "address",
          "name": "operator",
          "type": "address"
        },
        {
          "internalType": "bool",
          "name": "approved",
          "type": "bool"
        }
      ],
      "name": "setApprovalForAll",
      "outputs": [],
      "stateMutability": "nonpayable",
      "type": "function"
    },
    {
      "inputs": [
        {
          "internalType": "bytes4",
          "name": "interfaceId",
          "type": "bytes4"
        }
      ],
      "name": "supportsInterface",
      "outputs": [
        {
          "internalType": "bool",
          "name": "",
          "type": "bool"
        }
      ],
      "stateMutability": "view",
      "type": "function"
    },
    {
      "inputs": [],
      "name": "symbol",
      "outputs": [
        {
          "internalType": "string",
          "name": "",
          "type": "string"
        }
      ],
      "stateMutability": "view",
      "type": "function"
    },
    {
      "inputs": [
        {
          "internalType": "uint256",
          "name": "tokenId",
          "type": "uint256"
        }
      ],
      "name": "tokenURI",
      "outputs": [
        {
          "internalType": "string",
          "name": "",
          "type": "string"
        }
      ],
      "stateMutability": "view",
      "type": "function"
    },
    {
      "inputs": [
        {
          "internalType": "address",
          "name": "from",
          "type": "address"
        },
        {
          "internalType": "address",
          "name": "to",
          "type": "address"
        },
        {
          "internalType": "uint256",
          "name": "tokenId",
          "type": "uint256"
        }
      ],
      "name": "transferFrom",
      "outputs": [],
      "stateMutability": "nonpayable",
      "type": "function"
    },
    {
      "inputs": [
        {
          "internalType": "address",
          "name": "newOwner",
          "type": "address"
        }
      ],
      "name": "transferOwnership",
      "outputs": [],
      "stateMutability": "nonpayable",
      "type": "function"
    }
  ],
  "bytecode": "0x60a0604052655af3107a40006080526000600a5534801561001f57600080fd5b5060405161221738038061221783398101604081905261003e9161025d565b808383600061004d8382610371565b50600161005a8282610371565b50506001600855506001600160a01b03811661009157604051631e4fbdf760e01b8152600060048201526024015b60405180910390fd5b61009a816100af565b506100a7816103e8610101565b50505061042f565b600980546001600160a01b038381166001600160a01b0319831681179093556040519116919082907f8be0079c531659141344cd1fd0a4f28419497f9722a3daafe3b4186f6b6457e090600090a35050565b6127106001600160601b03821681101561014057604051636f483d0960e01b81526001600160601b038316600482015260248101829052604401610088565b6001600160a01b03831661016a57604051635b6cc80560e11b815260006004820152602401610088565b50604080518082019091526001600160a01b039092168083526001600160601b039091166020909201829052600160a01b90910217600655565b634e487b7160e01b600052604160045260246000fd5b600082601f8301126101cb57600080fd5b81516001600160401b038111156101e4576101e46101a4565b604051601f8201601f19908116603f011681016001600160401b0381118282101715610212576102126101a4565b60405281815283820160200185101561022a57600080fd5b60005b828110156102495760208186018101518383018201520161022d565b506000918101602001919091529392505050565b60008060006060848603121561027257600080fd5b83516001600160401b0381111561028857600080fd5b610294868287016101ba565b602086015190945090506001600160401b038111156102b257600080fd5b6102be868287016101ba565b604086015190935090506001600160a01b03811681146102dd57600080fd5b809150509250925092565b600181811c908216806102fc57607f821691505b60208210810361031c57634e487b7160e01b600052602260045260246000fd5b50919050565b601f82111561036c57806000526020600020601f840160051c810160208510156103495750805b601f840160051c820191505b818110156103695760008155600101610355565b50505b505050565b81516001600160401b0381111561038a5761038a6101a4565b61039e8161039884546102e8565b84610322565b6020601f8211600181146103d257600083156103ba5750848201515b600019600385901b1c1916600184901b178455610369565b600084815260208120601f198516915b8281101561040257878501518255602094850194600190920191016103e2565b50848210156104205786840151600019600387901b60f8161c191681555b50505050600190811b01905550565b608051611dbf610458600039600081816103f00152818161088001526109900152611dbf6000f3fe6080604052600436106101815760003560e01c806396113d36116100d1578063c87b56dd1161008a578063e985e9c511610064578063e985e9c5146104c2578063f2fde38b146104e2578063fb374bcf14610502578063fd10a2661461051557600080fd5b8063c87b56dd14610412578063de74e57b14610432578063e80d7fec146104a257600080fd5b806396113d361461036c578063a22cb46514610381578063b2750771146103a1578063b88d4fde146103b6578063bb84ef53146103d6578063c002d23d146103de57600080fd5b8063305a67a81161013e57806370a082311161011857806370a08231146102f6578063715018a6146103245780638da5cb5b1461033957806395d89b411461035757600080fd5b8063305a67a81461029657806342842e0e146102b65780636352211e146102d657600080fd5b806301ffc9a71461018657806306fdde03146101bb578063081812fc146101dd578063095ea7b31461021557806323b872dd146102375780632a55205a14610257575b600080fd5b34801561019257600080fd5b506101a66101a136600461198f565b61052a565b60405190151581526020015b60405180910390f35b3480156101c757600080fd5b506101d061053b565b6040516101b291906119fc565b3480156101e957600080fd5b506101fd6101f8366004611a0f565b6105cd565b6040516001600160a01b0390911681526020016101b2565b34801561022157600080fd5b50610235610230366004611a44565b6105f6565b005b34801561024357600080fd5b50610235610252366004611a6e565b610605565b34801561026357600080fd5b50610277610272366004611aab565b610695565b604080516001600160a01b0390931683526020830191909152016101b2565b3480156102a257600080fd5b506102356102b1366004611a0f565b61071a565b3480156102c257600080fd5b506102356102d1366004611a6e565b6107c5565b3480156102e257600080fd5b506101fd6102f1366004611a0f565b6107e5565b34801561030257600080fd5b50610316610311366004611acd565b6107f0565b6040519081526020016101b2565b34801561033057600080fd5b50610235610838565b34801561034557600080fd5b506009546001600160a01b03166101fd565b34801561036357600080fd5b506101d061084c565b34801561037857600080fd5b50610316606481565b34801561038d57600080fd5b5061023561039c366004611ae8565b61085b565b3480156103ad57600080fd5b50600a54610316565b3480156103c257600080fd5b506102356103d1366004611b3a565b610866565b61023561087e565b3480156103ea57600080fd5b506103167f000000000000000000000000000000000000000000000000000000000000000081565b34801561041e57600080fd5b506101d061042d366004611a0f565b6109ed565b34801561043e57600080fd5b5061047b61044d366004611a0f565b600b602052600090815260409020805460018201546002909201546001600160a01b03909116919060ff1683565b604080516001600160a01b03909416845260208401929092521515908201526060016101b2565b3480156104ae57600080fd5b506102356104bd366004611aab565b610a62565b3480156104ce57600080fd5b506101a66104dd366004611c1e565b610bee565b3480156104ee57600080fd5b506102356104fd366004611acd565b610c1c565b610235610510366004611a0f565b610c57565b34801561052157600080fd5b50610235610fca565b60006105358261102b565b92915050565b60606000805461054a90611c51565b80601f016020809104026020016040519081016040528092919081815260200182805461057690611c51565b80156105c35780601f10610598576101008083540402835291602001916105c3565b820191906000526020600020905b8154815290600101906020018083116105a657829003601f168201915b5050505050905090565b60006105d882611050565b506000828152600460205260409020546001600160a01b0316610535565b610601828233611089565b5050565b6001600160a01b03821661063457604051633250574960e11b8152600060048201526024015b60405180910390fd5b6000610641838333611096565b9050836001600160a01b0316816001600160a01b03161461068f576040516364283d7b60e01b81526001600160a01b038086166004830152602482018490528216604482015260640161062b565b50505050565b600082815260076020526040812080548291906001600160a01b03811690600160a01b90046001600160601b0316816106e95750506006546001600160a01b03811690600160a01b90046001600160601b03165b60006127106107016001600160601b03841689611ca1565b61070b9190611cb8565b92989297509195505050505050565b6000818152600b60205260409020546001600160a01b0316331461076d5760405162461bcd60e51b815260206004820152600a6024820152692737ba1039b2b63632b960b11b604482015260640161062b565b6000818152600b602052604080822080546001600160a01b031916815560018101839055600201805460ff191690555182917f411aee90354c51b1b04cd563fcab2617142a9d50da19232d888547c8a1b7fd8a91a250565b6107e083838360405180602001604052806000815250610866565b505050565b600061053582611050565b60006001600160a01b03821661081c576040516322718ad960e21b81526000600482015260240161062b565b506001600160a01b031660009081526003602052604090205490565b61084061118f565b61084a60006111bc565b565b60606001805461054a90611c51565b61060133838361120e565b610871848484610605565b61068f33858585856112ad565b7f00000000000000000000000000000000000000000000000000000000000000003410156108e55760405162461bcd60e51b8152602060048201526014602482015273125b9cdd59999a58da595b9d081c185e5b595b9d60621b604482015260640161062b565b6000600a54116109375760405162461bcd60e51b815260206004820152601c60248201527f46697273742065646974696f6e206e6f74206d696e7465642079657400000000604482015260640161062b565b6064600a54106109805760405162461bcd60e51b815260206004820152601460248201527313585e0819591a5d1a5bdb9cc81c995858da195960621b604482015260640161062b565b610989336113d8565b60006109b57f000000000000000000000000000000000000000000000000000000000000000034611cda565b905080156109ea57604051339082156108fc029083906000818181858888f19350505050158015610601573d6000803e3d6000fd5b50565b60606109f882611050565b506000610a1060408051602081019091526000815290565b90506000815111610a305760405180602001604052806000815250610a5b565b80610a3a8461147d565b604051602001610a4b929190611ced565b6040516020818303038152906040525b9392505050565b33610a6c836107e5565b6001600160a01b031614610ab45760405162461bcd60e51b815260206004820152600f60248201526e2737ba103a37b5b2b71037bbb732b960891b604482015260640161062b565b60008111610b045760405162461bcd60e51b815260206004820152601c60248201527f5072696365206d7573742062652067726561746572207468616e203000000000604482015260640161062b565b6000828152600b602052604090206002015460ff1615610b575760405162461bcd60e51b815260206004820152600e60248201526d105b1c9958591e481b1a5cdd195960921b604482015260640161062b565b60408051606081018252338152602080820184815260018385018181526000888152600b8552869020945185546001600160a01b0319166001600160a01b03909116178555915190840155516002909201805460ff191692151592909217909155905182815283917f052193e52777e7a3e31262a108fb417b6935b4fff0742aa1e76b812cb5cea06f910160405180910390a25050565b6001600160a01b03918216600090815260056020908152604080832093909416825291909152205460ff1690565b610c2461118f565b6001600160a01b038116610c4e57604051631e4fbdf760e01b81526000600482015260240161062b565b6109ea816111bc565b610c5f611510565b6000818152600b6020908152604091829020825160608101845281546001600160a01b031681526001820154928101929092526002015460ff16151591810182905290610cdb5760405162461bcd60e51b815260206004820152600a602482015269139bdd081b1a5cdd195960b21b604482015260640161062b565b8060200151341015610d265760405162461bcd60e51b8152602060048201526014602482015273125b9cdd59999a58da595b9d081c185e5b595b9d60621b604482015260640161062b565b80516020808301516000858152600b9092526040822080546001600160a01b031916815560018101839055600201805460ff191690559080610d688684610695565b90925090506000610d798285611cda565b9050610d8685338961153a565b6000836001600160a01b03168360405160006040518083038185875af1925050503d8060008114610dd3576040519150601f19603f3d011682016040523d82523d6000602084013e610dd8565b606091505b5050905080610e295760405162461bcd60e51b815260206004820152601760248201527f526f79616c7479207472616e73666572206661696c6564000000000000000000604482015260640161062b565b6000866001600160a01b03168360405160006040518083038185875af1925050503d8060008114610e76576040519150601f19603f3d011682016040523d82523d6000602084013e610e7b565b606091505b5050905080610ec55760405162461bcd60e51b815260206004820152601660248201527514d95b1b195c881d1c985b9cd9995c8819985a5b195960521b604482015260640161062b565b6000610ed18734611cda565b90508015610f6c57604051600090339083908381818185875af1925050503d8060008114610f1b576040519150601f19603f3d011682016040523d82523d6000602084013e610f20565b606091505b5050905080610f6a5760405162461bcd60e51b81526020600482015260166024820152751499599d5b99081d1c985b9cd9995c8819985a5b195960521b604482015260640161062b565b505b604080516001600160a01b038a1681523360208201529081018890528a907f390181b94203e6a571a4a2125c19b547e2eea81bec83cbee4d3911cfcee6d9fa9060600160405180910390a25050505050505050506109ea6001600855565b610fd261118f565b600a54156110225760405162461bcd60e51b815260206004820152601c60248201527f46697273742065646974696f6e20616c7265616479206d696e74656400000000604482015260640161062b565b61084a336113d8565b60006001600160e01b0319821663152a902d60e11b14806105355750610535826115ea565b6000818152600260205260408120546001600160a01b03168061053557604051637e27328960e01b81526004810184905260240161062b565b6107e0838383600161163a565b6000828152600260205260408120546001600160a01b03908116908316156110c3576110c3818486611740565b6001600160a01b03811615611101576110e060008560008061163a565b6001600160a01b038116600090815260036020526040902080546000190190555b6001600160a01b03851615611130576001600160a01b0385166000908152600360205260409020805460010190555b60008481526002602052604080822080546001600160a01b0319166001600160a01b0389811691821790925591518793918516917fddf252ad1be2c89b69c2b068fc378daa952ba7f163c4a11628f55a4df523b3ef91a4949350505050565b6009546001600160a01b0316331461084a5760405163118cdaa760e01b815233600482015260240161062b565b600980546001600160a01b038381166001600160a01b0319831681179093556040519116919082907f8be0079c531659141344cd1fd0a4f28419497f9722a3daafe3b4186f6b6457e090600090a35050565b6001600160a01b03821661124057604051630b61174360e31b81526001600160a01b038316600482015260240161062b565b6001600160a01b03838116600081815260056020908152604080832094871680845294825291829020805460ff191686151590811790915591519182527f17307eab39ab6107e8899845ad3d59bd9653f200f220920489ca2b5937696c31910160405180910390a3505050565b6001600160a01b0383163b156113d157604051630a85bd0160e11b81526001600160a01b0384169063150b7a02906112ef908890889087908790600401611d1c565b6020604051808303816000875af192505050801561132a575060408051601f3d908101601f1916820190925261132791810190611d59565b60015b611393573d808015611358576040519150601f19603f3d011682016040523d82523d6000602084013e61135d565b606091505b50805160000361138b57604051633250574960e11b81526001600160a01b038516600482015260240161062b565b805181602001fd5b6001600160e01b03198116630a85bd0160e11b146113cf57604051633250574960e11b81526001600160a01b038516600482015260240161062b565b505b5050505050565b6064600a54106114215760405162461bcd60e51b815260206004820152601460248201527313585e0819591a5d1a5bdb9cc81c995858da195960621b604482015260640161062b565b6000600a5460016114329190611d76565b600a819055905061144382826117a4565b6040516001600160a01b0383169082907f9d3c65aa0f81d182df831bce026697f271315c39c410cfd2a412e8a587ebd3ad90600090a35050565b6060600061148a836117be565b600101905060008167ffffffffffffffff8111156114aa576114aa611b24565b6040519080825280601f01601f1916602001820160405280156114d4576020820181803683370190505b5090508181016020015b600019016f181899199a1a9b1b9c1cb0b131b232b360811b600a86061a8153600a85049450846114de57509392505050565b60026008540361153357604051633ee5aeb560e01b815260040160405180910390fd5b6002600855565b6001600160a01b03821661156457604051633250574960e11b81526000600482015260240161062b565b600061157283836000611096565b90506001600160a01b03811661159e57604051637e27328960e01b81526004810183905260240161062b565b836001600160a01b0316816001600160a01b03161461068f576040516364283d7b60e01b81526001600160a01b038086166004830152602482018490528216604482015260640161062b565b60006001600160e01b031982166380ac58cd60e01b148061161b57506001600160e01b03198216635b5e139f60e01b145b8061053557506301ffc9a760e01b6001600160e01b0319831614610535565b808061164e57506001600160a01b03821615155b1561171057600061165e84611050565b90506001600160a01b0383161580159061168a5750826001600160a01b0316816001600160a01b031614155b801561169d575061169b8184610bee565b155b156116c65760405163a9fbf51f60e01b81526001600160a01b038416600482015260240161062b565b811561170e5783856001600160a01b0316826001600160a01b03167f8c5be1e5ebec7d5bd14f71427d1e84f3dd0314c0f7b2291e5b200ac8c7c3b92560405160405180910390a45b505b5050600090815260046020526040902080546001600160a01b0319166001600160a01b0392909216919091179055565b61174b838383611896565b6107e0576001600160a01b03831661177957604051637e27328960e01b81526004810182905260240161062b565b60405163177e802f60e01b81526001600160a01b03831660048201526024810182905260440161062b565b6106018282604051806020016040528060008152506118fc565b60008072184f03e93ff9f4daa797ed6e38ed64bf6a1f0160401b83106117fd5772184f03e93ff9f4daa797ed6e38ed64bf6a1f0160401b830492506040015b6d04ee2d6d415b85acef81000000008310611829576d04ee2d6d415b85acef8100000000830492506020015b662386f26fc10000831061184757662386f26fc10000830492506010015b6305f5e100831061185f576305f5e100830492506008015b612710831061187357612710830492506004015b60648310611885576064830492506002015b600a83106105355760010192915050565b60006001600160a01b038316158015906118f45750826001600160a01b0316846001600160a01b031614806118d057506118d08484610bee565b806118f457506000828152600460205260409020546001600160a01b038481169116145b949350505050565b6119068383611914565b6107e03360008585856112ad565b6001600160a01b03821661193e57604051633250574960e11b81526000600482015260240161062b565b600061194c83836000611096565b90506001600160a01b038116156107e0576040516339e3563760e11b81526000600482015260240161062b565b6001600160e01b0319811681146109ea57600080fd5b6000602082840312156119a157600080fd5b8135610a5b81611979565b60005b838110156119c75781810151838201526020016119af565b50506000910152565b600081518084526119e88160208601602086016119ac565b601f01601f19169290920160200192915050565b602081526000610a5b60208301846119d0565b600060208284031215611a2157600080fd5b5035919050565b80356001600160a01b0381168114611a3f57600080fd5b919050565b60008060408385031215611a5757600080fd5b611a6083611a28565b946020939093013593505050565b600080600060608486031215611a8357600080fd5b611a8c84611a28565b9250611a9a60208501611a28565b929592945050506040919091013590565b60008060408385031215611abe57600080fd5b50508035926020909101359150565b600060208284031215611adf57600080fd5b610a5b82611a28565b60008060408385031215611afb57600080fd5b611b0483611a28565b915060208301358015158114611b1957600080fd5b809150509250929050565b634e487b7160e01b600052604160045260246000fd5b60008060008060808587031215611b5057600080fd5b611b5985611a28565b9350611b6760208601611a28565b925060408501359150606085013567ffffffffffffffff811115611b8a57600080fd5b8501601f81018713611b9b57600080fd5b803567ffffffffffffffff811115611bb557611bb5611b24565b604051601f8201601f19908116603f0116810167ffffffffffffffff81118282101715611be457611be4611b24565b604052818152828201602001891015611bfc57600080fd5b8160208401602083013760006020838301015280935050505092959194509250565b60008060408385031215611c3157600080fd5b611c3a83611a28565b9150611c4860208401611a28565b90509250929050565b600181811c90821680611c6557607f821691505b602082108103611c8557634e487b7160e01b600052602260045260246000fd5b50919050565b634e487b7160e01b600052601160045260246000fd5b808202811582820484141761053557610535611c8b565b600082611cd557634e487b7160e01b600052601260045260246000fd5b500490565b8181038181111561053557610535611c8b565b60008351611cff8184602088016119ac565b835190830190611d138183602088016119ac565b01949350505050565b6001600160a01b0385811682528416602082015260408101839052608060608201819052600090611d4f908301846119d0565b9695505050505050565b600060208284031215611d6b57600080fd5b8151610a5b81611979565b8082018082111561053557610535611c8b56fea2646970667358221220690fd5ed55eaa9d28ab3e7fb82b0a970184ddaf54d0927be6b6b9d9d5f4939ae64736f6c634300081c0033",
  "linkReferences": {},
  "deployedLinkReferences": {}
}