{
  "_format": "hh-sol-artifact-1",
  "contractName": "CoinTrader",
  "sourceName": "contracts/CoinTrader.sol",
  "abi": [
    {
      "inputs": [],
      "name": "ReentrancyGuardReentrantCall",
      "type": "error"
    },
    {
      "anonymous": false,
      "inputs": [
        {
          "indexed": true,
          "internalType": "address",
          "name": "trader",
          "type": "address"
        },
        {
          "indexed": true,
          "internalType": "address",
          "name": "token",
          "type": "address"
        },
        {
          "indexed": false,
          "internalType": "bool",
          "name": "isBuy",
          "type": "bool"
        },
        {
          "indexed": false,
          "internalType": "uint256",
          "name": "amountIn",
          "type": "uint256"
        },
        {
          "indexed": false,
          "internalType": "uint256",
          "name": "minAmountOut",
          "type": "uint256"
        },
        {
          "indexed": false,
          "internalType": "address",
          "name": "recipient",
          "type": "address"
        }
      ],
      "name": "TradeExecuted",
      "type": "event"
    },
    {
      "inputs": [
        {
          "internalType": "address",
          "name": "token",
          "type": "address"
        },
        {
          "internalType": "bool",
          "name": "isBuy",
          "type": "bool"
        },
        {
          "internalType": "address",
          "name": "recipient",
          "type": "address"
        },
        {
          "internalType": "uint256",
          "name": "amountIn",
          "type": "uint256"
        },
        {
          "internalType": "uint256",
          "name": "minAmountOut",
          "type": "uint256"
        },
        {
          "internalType": "uint160",
          "name": "sqrtPriceLimitX96",
          "type": "uint160"
        },
        {
          "internalType": "address",
          "name": "tradeReferrer",
          "type": "address"
        }
      ],
      "name": "tradeCoin",
      "outputs": [
        {
          "internalType": "bool",
          "name": "success",
          "type": "bool"
        }
      ],
      "stateMutability": "payable",
      "type": "function"
    },
    {
      "stateMutability": "payable",
      "type": "receive"
    }
  ],
  "bytecode": "0x6080604052348015600f57600080fd5b506001600055610372806100246000396000f3fe6080604052600436106100225760003560e01c8063a60989901461002e57600080fd5b3661002957005b600080fd5b61004161003c3660046102b3565b610055565b604051901515815260200160405180910390f35b600061005f610271565b8615610139578434146100b95760405162461bcd60e51b815260206004820152601f60248201527f455448206d757374206d6174636820616d6f756e74496e20666f72206275790060448201526064015b60405180910390fd5b60405163c957180f60e01b81526001600160a01b03878116600483015260248201879052604482018690528481166064830152838116608483015289169063c957180f90879060a4016000604051808303818588803b15801561011b57600080fd5b505af115801561012f573d6000803e3d6000fd5b5050505050610201565b34156101875760405162461bcd60e51b815260206004820152601860248201527f446f206e6f742073656e642045544820666f722073656c6c000000000000000060448201526064016100b0565b60405163b49d370d60e01b81526001600160a01b03878116600483015260248201879052604482018690528481166064830152838116608483015289169063b49d370d9060a401600060405180830381600087803b1580156101e857600080fd5b505af11580156101fc573d6000803e3d6000fd5b505050505b604080518815158152602081018790529081018590526001600160a01b03878116606083015289169033907f3cf2b1bd99c9aaabeeef6dc356f2aa08e5c2eb1a485f14dfd9a0b95d5859cbbd9060800160405180910390a35060016102666001600055565b979650505050505050565b60026000540361029457604051633ee5aeb560e01b815260040160405180910390fd5b6002600055565b6001600160a01b03811681146102b057600080fd5b50565b600080600080600080600060e0888a0312156102ce57600080fd5b87356102d98161029b565b9650602088013580151581146102ee57600080fd5b955060408801356102fe8161029b565b9450606088013593506080880135925060a088013561031c8161029b565b915060c088013561032c8161029b565b809150509295989194975092955056fea2646970667358221220f114949eea21624667b7da9058e30d561c41a6a6360c89b5750ed2e2811e411c64736f6c634300081c0033",
  "linkReferences": {},
  "deployedLinkReferences": {}
}